{
  "_format": "hh-sol-artifact-1",
  "contractName": "LazyDWF",
  "sourceName": "contracts/LazyDWF.sol",
  "abi": [
    {
      "inputs": [
        {
          "internalType": "address payable",
          "name": "_minter",
          "type": "address"
        }
      ],
      "stateMutability": "nonpayable",
      "type": "constructor"
    },
    {
      "anonymous": false,
      "inputs": [
        {
          "indexed": true,
          "internalType": "address",
          "name": "owner",
          "type": "address"
        },
        {
          "indexed": true,
          "internalType": "address",
          "name": "approved",
          "type": "address"
        },
        {
          "indexed": true,
          "internalType": "uint256",
          "name": "tokenId",
          "type": "uint256"
        }
      ],
      "name": "Approval",
      "type": "event"
    },
    {
      "anonymous": false,
      "inputs": [
        {
          "indexed": true,
          "internalType": "address",
          "name": "owner",
          "type": "address"
        },
        {
          "indexed": true,
          "internalType": "address",
          "name": "operator",
          "type": "address"
        },
        {
          "indexed": false,
          "internalType": "bool",
          "name": "approved",
          "type": "bool"
        }
      ],
      "name": "ApprovalForAll",
      "type": "event"
    },
    {
      "anonymous": false,
      "inputs": [
        {
          "indexed": false,
          "internalType": "uint256",
          "name": "tokenId",
          "type": "uint256"
        },
        {
          "indexed": false,
          "internalType": "bytes32",
          "name": "newMetadata",
          "type": "bytes32"
        }
      ],
      "name": "MetadataChanged",
      "type": "event"
    },
    {
      "anonymous": false,
      "inputs": [
        {
          "indexed": true,
          "internalType": "bytes32",
          "name": "role",
          "type": "bytes32"
        },
        {
          "indexed": true,
          "internalType": "bytes32",
          "name": "previousAdminRole",
          "type": "bytes32"
        },
        {
          "indexed": true,
          "internalType": "bytes32",
          "name": "newAdminRole",
          "type": "bytes32"
        }
      ],
      "name": "RoleAdminChanged",
      "type": "event"
    },
    {
      "anonymous": false,
      "inputs": [
        {
          "indexed": true,
          "internalType": "bytes32",
          "name": "role",
          "type": "bytes32"
        },
        {
          "indexed": true,
          "internalType": "address",
          "name": "account",
          "type": "address"
        },
        {
          "indexed": true,
          "internalType": "address",
          "name": "sender",
          "type": "address"
        }
      ],
      "name": "RoleGranted",
      "type": "event"
    },
    {
      "anonymous": false,
      "inputs": [
        {
          "indexed": true,
          "internalType": "bytes32",
          "name": "role",
          "type": "bytes32"
        },
        {
          "indexed": true,
          "internalType": "address",
          "name": "account",
          "type": "address"
        },
        {
          "indexed": true,
          "internalType": "address",
          "name": "sender",
          "type": "address"
        }
      ],
      "name": "RoleRevoked",
      "type": "event"
    },
    {
      "anonymous": false,
      "inputs": [
        {
          "indexed": true,
          "internalType": "address",
          "name": "from",
          "type": "address"
        },
        {
          "indexed": true,
          "internalType": "address",
          "name": "to",
          "type": "address"
        },
        {
          "indexed": true,
          "internalType": "uint256",
          "name": "tokenId",
          "type": "uint256"
        }
      ],
      "name": "Transfer",
      "type": "event"
    },
    {
      "inputs": [],
      "name": "DEFAULT_ADMIN_ROLE",
      "outputs": [
        {
          "internalType": "bytes32",
          "name": "",
          "type": "bytes32"
        }
      ],
      "stateMutability": "view",
      "type": "function"
    },
    {
      "inputs": [],
      "name": "MINTER_ROLE",
      "outputs": [
        {
          "internalType": "bytes32",
          "name": "",
          "type": "bytes32"
        }
      ],
      "stateMutability": "view",
      "type": "function"
    },
    {
      "inputs": [
        {
          "internalType": "address",
          "name": "to",
          "type": "address"
        },
        {
          "internalType": "uint256",
          "name": "tokenId",
          "type": "uint256"
        }
      ],
      "name": "approve",
      "outputs": [],
      "stateMutability": "nonpayable",
      "type": "function"
    },
    {
      "inputs": [
        {
          "internalType": "uint256",
          "name": "tokenId",
          "type": "uint256"
        },
        {
          "internalType": "bytes32",
          "name": "metadata",
          "type": "bytes32"
        }
      ],
      "name": "approveMetadataChange",
      "outputs": [],
      "stateMutability": "nonpayable",
      "type": "function"
    },
    {
      "inputs": [
        {
          "internalType": "address",
          "name": "owner",
          "type": "address"
        }
      ],
      "name": "balanceOf",
      "outputs": [
        {
          "internalType": "uint256",
          "name": "",
          "type": "uint256"
        }
      ],
      "stateMutability": "view",
      "type": "function"
    },
    {
      "inputs": [
        {
          "internalType": "uint256",
          "name": "tokenId",
          "type": "uint256"
        }
      ],
      "name": "changeMetadata",
      "outputs": [],
      "stateMutability": "nonpayable",
      "type": "function"
    },
    {
      "inputs": [
        {
          "internalType": "uint256",
          "name": "tokenId",
          "type": "uint256"
        }
      ],
      "name": "getApproved",
      "outputs": [
        {
          "internalType": "address",
          "name": "",
          "type": "address"
        }
      ],
      "stateMutability": "view",
      "type": "function"
    },
    {
      "inputs": [],
      "name": "getChainId",
      "outputs": [
        {
          "internalType": "uint256",
          "name": "",
          "type": "uint256"
        }
      ],
      "stateMutability": "view",
      "type": "function"
    },
    {
      "inputs": [
        {
          "internalType": "bytes32",
          "name": "role",
          "type": "bytes32"
        }
      ],
      "name": "getRoleAdmin",
      "outputs": [
        {
          "internalType": "bytes32",
          "name": "",
          "type": "bytes32"
        }
      ],
      "stateMutability": "view",
      "type": "function"
    },
    {
      "inputs": [
        {
          "internalType": "bytes32",
          "name": "role",
          "type": "bytes32"
        },
        {
          "internalType": "address",
          "name": "account",
          "type": "address"
        }
      ],
      "name": "grantRole",
      "outputs": [],
      "stateMutability": "nonpayable",
      "type": "function"
    },
    {
      "inputs": [
        {
          "internalType": "bytes32",
          "name": "role",
          "type": "bytes32"
        },
        {
          "internalType": "address",
          "name": "account",
          "type": "address"
        }
      ],
      "name": "hasRole",
      "outputs": [
        {
          "internalType": "bool",
          "name": "",
          "type": "bool"
        }
      ],
      "stateMutability": "view",
      "type": "function"
    },
    {
      "inputs": [
        {
          "internalType": "address",
          "name": "owner",
          "type": "address"
        },
        {
          "internalType": "address",
          "name": "operator",
          "type": "address"
        }
      ],
      "name": "isApprovedForAll",
      "outputs": [
        {
          "internalType": "bool",
          "name": "",
          "type": "bool"
        }
      ],
      "stateMutability": "view",
      "type": "function"
    },
    {
      "inputs": [],
      "name": "name",
      "outputs": [
        {
          "internalType": "string",
          "name": "",
          "type": "string"
        }
      ],
      "stateMutability": "view",
      "type": "function"
    },
    {
      "inputs": [
        {
          "internalType": "uint256",
          "name": "tokenId",
          "type": "uint256"
        }
      ],
      "name": "ownerOf",
      "outputs": [
        {
          "internalType": "address",
          "name": "",
          "type": "address"
        }
      ],
      "stateMutability": "view",
      "type": "function"
    },
    {
      "inputs": [
        {
          "components": [
            {
              "internalType": "uint256",
              "name": "tokenId",
              "type": "uint256"
            },
            {
              "internalType": "uint256",
              "name": "minPrice",
              "type": "uint256"
            },
            {
              "internalType": "bytes32",
              "name": "metadata",
              "type": "bytes32"
            },
            {
              "internalType": "bytes",
              "name": "signature",
              "type": "bytes"
            }
          ],
          "internalType": "struct LazyDWF.DWFVoucher",
          "name": "voucher",
          "type": "tuple"
        }
      ],
      "name": "redeem",
      "outputs": [
        {
          "internalType": "uint256",
          "name": "",
          "type": "uint256"
        }
      ],
      "stateMutability": "payable",
      "type": "function"
    },
    {
      "inputs": [
        {
          "internalType": "bytes32",
          "name": "role",
          "type": "bytes32"
        },
        {
          "internalType": "address",
          "name": "account",
          "type": "address"
        }
      ],
      "name": "renounceRole",
      "outputs": [],
      "stateMutability": "nonpayable",
      "type": "function"
    },
    {
      "inputs": [
        {
          "internalType": "bytes32",
          "name": "role",
          "type": "bytes32"
        },
        {
          "internalType": "address",
          "name": "account",
          "type": "address"
        }
      ],
      "name": "revokeRole",
      "outputs": [],
      "stateMutability": "nonpayable",
      "type": "function"
    },
    {
      "inputs": [
        {
          "internalType": "address",
          "name": "from",
          "type": "address"
        },
        {
          "internalType": "address",
          "name": "to",
          "type": "address"
        },
        {
          "internalType": "uint256",
          "name": "tokenId",
          "type": "uint256"
        }
      ],
      "name": "safeTransferFrom",
      "outputs": [],
      "stateMutability": "nonpayable",
      "type": "function"
    },
    {
      "inputs": [
        {
          "internalType": "address",
          "name": "from",
          "type": "address"
        },
        {
          "internalType": "address",
          "name": "to",
          "type": "address"
        },
        {
          "internalType": "uint256",
          "name": "tokenId",
          "type": "uint256"
        },
        {
          "internalType": "bytes",
          "name": "_data",
          "type": "bytes"
        }
      ],
      "name": "safeTransferFrom",
      "outputs": [],
      "stateMutability": "nonpayable",
      "type": "function"
    },
    {
      "inputs": [
        {
          "internalType": "address",
          "name": "operator",
          "type": "address"
        },
        {
          "internalType": "bool",
          "name": "approved",
          "type": "bool"
        }
      ],
      "name": "setApprovalForAll",
      "outputs": [],
      "stateMutability": "nonpayable",
      "type": "function"
    },
    {
      "inputs": [
        {
          "internalType": "bytes4",
          "name": "interfaceId",
          "type": "bytes4"
        }
      ],
      "name": "supportsInterface",
      "outputs": [
        {
          "internalType": "bool",
          "name": "",
          "type": "bool"
        }
      ],
      "stateMutability": "view",
      "type": "function"
    },
    {
      "inputs": [],
      "name": "symbol",
      "outputs": [
        {
          "internalType": "string",
          "name": "",
          "type": "string"
        }
      ],
      "stateMutability": "view",
      "type": "function"
    },
    {
      "inputs": [
        {
          "internalType": "uint256",
          "name": "tokenId",
          "type": "uint256"
        }
      ],
      "name": "tokenURI",
      "outputs": [
        {
          "internalType": "string",
          "name": "",
          "type": "string"
        }
      ],
      "stateMutability": "view",
      "type": "function"
    },
    {
      "inputs": [
        {
          "internalType": "address",
          "name": "from",
          "type": "address"
        },
        {
          "internalType": "address",
          "name": "to",
          "type": "address"
        },
        {
          "internalType": "uint256",
          "name": "tokenId",
          "type": "uint256"
        }
      ],
      "name": "transferFrom",
      "outputs": [],
      "stateMutability": "nonpayable",
      "type": "function"
    },
    {
      "inputs": [],
      "name": "withdraw",
      "outputs": [],
      "stateMutability": "nonpayable",
      "type": "function"
    }
  ],
  "bytecode": "0x6101406040523480156200001257600080fd5b5060405162004f7538038062004f758339818101604052810190620000389190620004b0565b6040518060400160405280600f81526020017f4c617a794457462d566f756368657200000000000000000000000000000000008152506040518060400160405280600181526020017f31000000000000000000000000000000000000000000000000000000000000008152506040518060400160405280600781526020017f4c617a79445746000000000000000000000000000000000000000000000000008152506040518060400160405280600381526020017f4446570000000000000000000000000000000000000000000000000000000000815250816000908051906020019062000128929190620003e9565b50806001908051906020019062000141929190620003e9565b50505060008280519060200120905060008280519060200120905060007f8b73c3c69bb8fe3d512ecc4cf759cc79239f7b179b0ffacaa9a75d522b39400f90508260e081815250508161010081815250504660a08181525050620001ad8184846200023260201b60201c565b608081815250503073ffffffffffffffffffffffffffffffffffffffff1660c08173ffffffffffffffffffffffffffffffffffffffff1660601b8152505080610120818152505050505050506200022b7ff0887ba65ee2024ea881d91b74c2450ef19e1557f03bed3ea9f16b037cbe2dc9826200026e60201b60201c565b5062000647565b600083838346306040516020016200024f9594939291906200050f565b6040516020818303038152906040528051906020012090509392505050565b6200028082826200028460201b60201c565b5050565b6200029682826200037660201b60201c565b620003725760016006600084815260200190815260200160002060000160008373ffffffffffffffffffffffffffffffffffffffff1673ffffffffffffffffffffffffffffffffffffffff16815260200190815260200160002060006101000a81548160ff02191690831515021790555062000317620003e160201b60201c565b73ffffffffffffffffffffffffffffffffffffffff168173ffffffffffffffffffffffffffffffffffffffff16837f2f8788117e7eff1d82e926ec794901d17c78024a50270940304540a733656f0d60405160405180910390a45b5050565b60006006600084815260200190815260200160002060000160008373ffffffffffffffffffffffffffffffffffffffff1673ffffffffffffffffffffffffffffffffffffffff16815260200190815260200160002060009054906101000a900460ff16905092915050565b600033905090565b828054620003f790620005c8565b90600052602060002090601f0160209004810192826200041b576000855562000467565b82601f106200043657805160ff191683800117855562000467565b8280016001018555821562000467579182015b828111156200046657825182559160200191906001019062000449565b5b5090506200047691906200047a565b5090565b5b80821115620004955760008160009055506001016200047b565b5090565b600081519050620004aa816200062d565b92915050565b600060208284031215620004c357600080fd5b6000620004d38482850162000499565b91505092915050565b620004e7816200056c565b82525050565b620004f88162000594565b82525050565b6200050981620005be565b82525050565b600060a082019050620005266000830188620004ed565b620005356020830187620004ed565b620005446040830186620004ed565b620005536060830185620004fe565b620005626080830184620004dc565b9695505050505050565b600062000579826200059e565b9050919050565b60006200058d826200059e565b9050919050565b6000819050919050565b600073ffffffffffffffffffffffffffffffffffffffff82169050919050565b6000819050919050565b60006002820490506001821680620005e157607f821691505b60208210811415620005f857620005f7620005fe565b5b50919050565b7f4e487b7100000000000000000000000000000000000000000000000000000000600052602260045260246000fd5b620006388162000580565b81146200064457600080fd5b50565b60805160a05160c05160601c60e05161010051610120516148db6200069a6000396000612b6201526000612ba401526000612b8301526000612ab801526000612b0e01526000612b3701526148db6000f3fe6080604052600436106101665760003560e01c806370a08231116100d1578063b88d4fde1161008a578063d547741f11610064578063d547741f1461054c578063d54ca55d14610575578063e985e9c5146105a5578063f0e91d4b146105e257610166565b8063b88d4fde146104bb578063c87b56dd146104e4578063d53913931461052157610166565b806370a082311461039957806391d14854146103d657806395d89b4114610413578063a0692b181461043e578063a217fddf14610467578063a22cb4651461049257610166565b80632f2ff15d116101235780632f2ff15d1461029f5780633408e470146102c857806336568abe146102f35780633ccfd60b1461031c57806342842e0e146103335780636352211e1461035c57610166565b806301ffc9a71461016b57806306fdde03146101a8578063081812fc146101d3578063095ea7b31461021057806323b872dd14610239578063248a9ca314610262575b600080fd5b34801561017757600080fd5b50610192600480360381019061018d91906130b4565b61060b565b60405161019f91906137dc565b60405180910390f35b3480156101b457600080fd5b506101bd61062d565b6040516101ca91906138ef565b60405180910390f35b3480156101df57600080fd5b506101fa60048036038101906101f59190613147565b6106bf565b6040516102079190613775565b60405180910390f35b34801561021c57600080fd5b5061023760048036038101906102329190613013565b610744565b005b34801561024557600080fd5b50610260600480360381019061025b9190612f0d565b61085c565b005b34801561026e57600080fd5b506102896004803603810190610284919061304f565b6108bc565b60405161029691906137f7565b60405180910390f35b3480156102ab57600080fd5b506102c660048036038101906102c19190613078565b6108dc565b005b3480156102d457600080fd5b506102dd610905565b6040516102ea9190613c51565b60405180910390f35b3480156102ff57600080fd5b5061031a60048036038101906103159190613078565b610912565b005b34801561032857600080fd5b50610331610995565b005b34801561033f57600080fd5b5061035a60048036038101906103559190612f0d565b610b67565b005b34801561036857600080fd5b50610383600480360381019061037e9190613147565b610b87565b6040516103909190613775565b60405180910390f35b3480156103a557600080fd5b506103c060048036038101906103bb9190612ea8565b610c39565b6040516103cd9190613c51565b60405180910390f35b3480156103e257600080fd5b506103fd60048036038101906103f89190613078565b610cf1565b60405161040a91906137dc565b60405180910390f35b34801561041f57600080fd5b50610428610d5c565b60405161043591906138ef565b60405180910390f35b34801561044a57600080fd5b5061046560048036038101906104609190613170565b610dee565b005b34801561047357600080fd5b5061047c610e80565b60405161048991906137f7565b60405180910390f35b34801561049e57600080fd5b506104b960048036038101906104b49190612fd7565b610e87565b005b3480156104c757600080fd5b506104e260048036038101906104dd9190612f5c565b610e9d565b005b3480156104f057600080fd5b5061050b60048036038101906105069190613147565b610eff565b60405161051891906138ef565b60405180910390f35b34801561052d57600080fd5b50610536610fa6565b60405161054391906137f7565b60405180910390f35b34801561055857600080fd5b50610573600480360381019061056e9190613078565b610fca565b005b61058f600480360381019061058a9190613106565b610ff3565b60405161059c9190613c51565b60405180910390f35b3480156105b157600080fd5b506105cc60048036038101906105c79190612ed1565b611151565b6040516105d991906137dc565b60405180910390f35b3480156105ee57600080fd5b5061060960048036038101906106049190613147565b6111e5565b005b600061061682611306565b806106265750610625826113e8565b5b9050919050565b60606000805461063c90613f9c565b80601f016020809104026020016040519081016040528092919081815260200182805461066890613f9c565b80156106b55780601f1061068a576101008083540402835291602001916106b5565b820191906000526020600020905b81548152906001019060200180831161069857829003601f168201915b5050505050905090565b60006106ca82611462565b610709576040517f08c379a000000000000000000000000000000000000000000000000000000000815260040161070090613b71565b60405180910390fd5b6004600083815260200190815260200160002060009054906101000a900473ffffffffffffffffffffffffffffffffffffffff169050919050565b600061074f82610b87565b90508073ffffffffffffffffffffffffffffffffffffffff168373ffffffffffffffffffffffffffffffffffffffff1614156107c0576040517f08c379a00000000000000000000000000000000000000000000000000000000081526004016107b790613bb1565b60405180910390fd5b8073ffffffffffffffffffffffffffffffffffffffff166107df6114ce565b73ffffffffffffffffffffffffffffffffffffffff16148061080e575061080d816108086114ce565b611151565b5b61084d576040517f08c379a000000000000000000000000000000000000000000000000000000000815260040161084490613ad1565b60405180910390fd5b61085783836114d6565b505050565b61086d6108676114ce565b8261158f565b6108ac576040517f08c379a00000000000000000000000000000000000000000000000000000000081526004016108a390613bf1565b60405180910390fd5b6108b783838361166d565b505050565b600060066000838152602001908152602001600020600101549050919050565b6108e5826108bc565b6108f6816108f16114ce565b6118d4565b6109008383611971565b505050565b6000804690508091505090565b61091a6114ce565b73ffffffffffffffffffffffffffffffffffffffff168173ffffffffffffffffffffffffffffffffffffffff1614610987576040517f08c379a000000000000000000000000000000000000000000000000000000000815260040161097e90613c31565b60405180910390fd5b6109918282611a52565b5050565b6000600860003373ffffffffffffffffffffffffffffffffffffffff1673ffffffffffffffffffffffffffffffffffffffff1681526020019081526020016000205411610a17576040517f08c379a0000000000000000000000000000000000000000000000000000000008152600401610a0e90613991565b60405180910390fd5b60003390506000600860008373ffffffffffffffffffffffffffffffffffffffff1673ffffffffffffffffffffffffffffffffffffffff16815260200190815260200160002054905080600860008473ffffffffffffffffffffffffffffffffffffffff1673ffffffffffffffffffffffffffffffffffffffff1681526020019081526020016000206000828254610aaf9190613e71565b9250508190555060008273ffffffffffffffffffffffffffffffffffffffff1682604051610adc90613726565b60006040518083038185875af1925050503d8060008114610b19576040519150601f19603f3d011682016040523d82523d6000602084013e610b1e565b606091505b5050905080610b62576040517f08c379a0000000000000000000000000000000000000000000000000000000008152600401610b5990613c11565b60405180910390fd5b505050565b610b8283838360405180602001604052806000815250610e9d565b505050565b6000806002600084815260200190815260200160002060009054906101000a900473ffffffffffffffffffffffffffffffffffffffff169050600073ffffffffffffffffffffffffffffffffffffffff168173ffffffffffffffffffffffffffffffffffffffff161415610c30576040517f08c379a0000000000000000000000000000000000000000000000000000000008152600401610c2790613b11565b60405180910390fd5b80915050919050565b60008073ffffffffffffffffffffffffffffffffffffffff168273ffffffffffffffffffffffffffffffffffffffff161415610caa576040517f08c379a0000000000000000000000000000000000000000000000000000000008152600401610ca190613af1565b60405180910390fd5b600360008373ffffffffffffffffffffffffffffffffffffffff1673ffffffffffffffffffffffffffffffffffffffff168152602001908152602001600020549050919050565b60006006600084815260200190815260200160002060000160008373ffffffffffffffffffffffffffffffffffffffff1673ffffffffffffffffffffffffffffffffffffffff16815260200190815260200160002060009054906101000a900460ff16905092915050565b606060018054610d6b90613f9c565b80601f0160208091040260200160405190810160405280929190818152602001828054610d9790613f9c565b8015610de45780601f10610db957610100808354040283529160200191610de4565b820191906000526020600020905b815481529060010190602001808311610dc757829003601f168201915b5050505050905090565b610df782610b87565b73ffffffffffffffffffffffffffffffffffffffff163373ffffffffffffffffffffffffffffffffffffffff1614610e64576040517f08c379a0000000000000000000000000000000000000000000000000000000008152600401610e5b90613a71565b60405180910390fd5b8060096000848152602001908152602001600020819055505050565b6000801b81565b610e99610e926114ce565b8383611b34565b5050565b610eae610ea86114ce565b8361158f565b610eed576040517f08c379a0000000000000000000000000000000000000000000000000000000008152600401610ee490613bf1565b60405180910390fd5b610ef984848484611ca1565b50505050565b6060610f0a82611462565b610f49576040517f08c379a0000000000000000000000000000000000000000000000000000000008152600401610f4090613b91565b60405180910390fd5b6000610f53611cfd565b90506000815111610f735760405180602001604052806000815250610f9e565b80610f7d84611d14565b604051602001610f8e9291906136cb565b6040516020818303038152906040525b915050919050565b7ff0887ba65ee2024ea881d91b74c2450ef19e1557f03bed3ea9f16b037cbe2dc981565b610fd3826108bc565b610fe481610fdf6114ce565b6118d4565b610fee8383611a52565b505050565b600080610fff83611ec1565b905061102b7ff0887ba65ee2024ea881d91b74c2450ef19e1557f03bed3ea9f16b037cbe2dc982610cf1565b61106a576040517f08c379a000000000000000000000000000000000000000000000000000000000815260040161106190613971565b60405180910390fd5b82602001353410156110b1576040517f08c379a00000000000000000000000000000000000000000000000000000000081526004016110a890613bd1565b60405180910390fd5b6110bf818460000135611f33565b6110ce8133856000013561166d565b826040013560076000856000013581526020019081526020016000208190555034600860008373ffffffffffffffffffffffffffffffffffffffff1673ffffffffffffffffffffffffffffffffffffffff168152602001908152602001600020600082825461113d9190613d90565b925050819055508260000135915050919050565b6000600560008473ffffffffffffffffffffffffffffffffffffffff1673ffffffffffffffffffffffffffffffffffffffff16815260200190815260200160002060008373ffffffffffffffffffffffffffffffffffffffff1673ffffffffffffffffffffffffffffffffffffffff16815260200190815260200160002060009054906101000a900460ff16905092915050565b61120f7ff0887ba65ee2024ea881d91b74c2450ef19e1557f03bed3ea9f16b037cbe2dc933610cf1565b61121857600080fd5b6000801b60096000838152602001908152602001600020541415611271576040517f08c379a000000000000000000000000000000000000000000000000000000000815260040161126890613a11565b60405180910390fd5b600960008281526020019081526020016000205460076000838152602001908152602001600020819055506000801b60096000838152602001908152602001600020819055507f47e0a2aec27854d0240700bbee8c8220c3035eb93e325e19bc7bfe877ed954858160076000848152602001908152602001600020546040516112fb929190613c6c565b60405180910390a150565b60007f80ac58cd000000000000000000000000000000000000000000000000000000007bffffffffffffffffffffffffffffffffffffffffffffffffffffffff1916827bffffffffffffffffffffffffffffffffffffffffffffffffffffffff191614806113d157507f5b5e139f000000000000000000000000000000000000000000000000000000007bffffffffffffffffffffffffffffffffffffffffffffffffffffffff1916827bffffffffffffffffffffffffffffffffffffffffffffffffffffffff1916145b806113e157506113e08261210d565b5b9050919050565b60007f7965db0b000000000000000000000000000000000000000000000000000000007bffffffffffffffffffffffffffffffffffffffffffffffffffffffff1916827bffffffffffffffffffffffffffffffffffffffffffffffffffffffff1916148061145b575061145a82611306565b5b9050919050565b60008073ffffffffffffffffffffffffffffffffffffffff166002600084815260200190815260200160002060009054906101000a900473ffffffffffffffffffffffffffffffffffffffff1673ffffffffffffffffffffffffffffffffffffffff1614159050919050565b600033905090565b816004600083815260200190815260200160002060006101000a81548173ffffffffffffffffffffffffffffffffffffffff021916908373ffffffffffffffffffffffffffffffffffffffff160217905550808273ffffffffffffffffffffffffffffffffffffffff1661154983610b87565b73ffffffffffffffffffffffffffffffffffffffff167f8c5be1e5ebec7d5bd14f71427d1e84f3dd0314c0f7b2291e5b200ac8c7c3b92560405160405180910390a45050565b600061159a82611462565b6115d9576040517f08c379a00000000000000000000000000000000000000000000000000000000081526004016115d090613ab1565b60405180910390fd5b60006115e483610b87565b90508073ffffffffffffffffffffffffffffffffffffffff168473ffffffffffffffffffffffffffffffffffffffff16148061165357508373ffffffffffffffffffffffffffffffffffffffff1661163b846106bf565b73ffffffffffffffffffffffffffffffffffffffff16145b8061166457506116638185611151565b5b91505092915050565b8273ffffffffffffffffffffffffffffffffffffffff1661168d82610b87565b73ffffffffffffffffffffffffffffffffffffffff16146116e3576040517f08c379a00000000000000000000000000000000000000000000000000000000081526004016116da906139d1565b60405180910390fd5b600073ffffffffffffffffffffffffffffffffffffffff168273ffffffffffffffffffffffffffffffffffffffff161415611753576040517f08c379a000000000000000000000000000000000000000000000000000000000815260040161174a90613a31565b60405180910390fd5b61175e838383612177565b6117696000826114d6565b6001600360008573ffffffffffffffffffffffffffffffffffffffff1673ffffffffffffffffffffffffffffffffffffffff16815260200190815260200160002060008282546117b99190613e71565b925050819055506001600360008473ffffffffffffffffffffffffffffffffffffffff1673ffffffffffffffffffffffffffffffffffffffff16815260200190815260200160002060008282546118109190613d90565b92505081905550816002600083815260200190815260200160002060006101000a81548173ffffffffffffffffffffffffffffffffffffffff021916908373ffffffffffffffffffffffffffffffffffffffff160217905550808273ffffffffffffffffffffffffffffffffffffffff168473ffffffffffffffffffffffffffffffffffffffff167fddf252ad1be2c89b69c2b068fc378daa952ba7f163c4a11628f55a4df523b3ef60405160405180910390a46118cf83838361217c565b505050565b6118de8282610cf1565b61196d576119038173ffffffffffffffffffffffffffffffffffffffff166014612181565b6119118360001c6020612181565b60405160200161192292919061373b565b6040516020818303038152906040526040517f08c379a000000000000000000000000000000000000000000000000000000000815260040161196491906138ef565b60405180910390fd5b5050565b61197b8282610cf1565b611a4e5760016006600084815260200190815260200160002060000160008373ffffffffffffffffffffffffffffffffffffffff1673ffffffffffffffffffffffffffffffffffffffff16815260200190815260200160002060006101000a81548160ff0219169083151502179055506119f36114ce565b73ffffffffffffffffffffffffffffffffffffffff168173ffffffffffffffffffffffffffffffffffffffff16837f2f8788117e7eff1d82e926ec794901d17c78024a50270940304540a733656f0d60405160405180910390a45b5050565b611a5c8282610cf1565b15611b305760006006600084815260200190815260200160002060000160008373ffffffffffffffffffffffffffffffffffffffff1673ffffffffffffffffffffffffffffffffffffffff16815260200190815260200160002060006101000a81548160ff021916908315150217905550611ad56114ce565b73ffffffffffffffffffffffffffffffffffffffff168173ffffffffffffffffffffffffffffffffffffffff16837ff6391f5c32d9c69d2a47ea670b442974b53935d1edc7fd64eb21e047a839171b60405160405180910390a45b5050565b8173ffffffffffffffffffffffffffffffffffffffff168373ffffffffffffffffffffffffffffffffffffffff161415611ba3576040517f08c379a0000000000000000000000000000000000000000000000000000000008152600401611b9a90613a51565b60405180910390fd5b80600560008573ffffffffffffffffffffffffffffffffffffffff1673ffffffffffffffffffffffffffffffffffffffff16815260200190815260200160002060008473ffffffffffffffffffffffffffffffffffffffff1673ffffffffffffffffffffffffffffffffffffffff16815260200190815260200160002060006101000a81548160ff0219169083151502179055508173ffffffffffffffffffffffffffffffffffffffff168373ffffffffffffffffffffffffffffffffffffffff167f17307eab39ab6107e8899845ad3d59bd9653f200f220920489ca2b5937696c3183604051611c9491906137dc565b60405180910390a3505050565b611cac84848461166d565b611cb88484848461247b565b611cf7576040517f08c379a0000000000000000000000000000000000000000000000000000000008152600401611cee906139b1565b60405180910390fd5b50505050565b606060405180602001604052806000815250905090565b60606000821415611d5c576040518060400160405280600181526020017f30000000000000000000000000000000000000000000000000000000000000008152509050611ebc565b600082905060005b60008214611d8e578080611d7790613fff565b915050600a82611d879190613de6565b9150611d64565b60008167ffffffffffffffff811115611dd0577f4e487b7100000000000000000000000000000000000000000000000000000000600052604160045260246000fd5b6040519080825280601f01601f191660200182016040528015611e025781602001600182028036833780820191505090505b5090505b60008514611eb557600182611e1b9190613e71565b9150600a85611e2a9190614052565b6030611e369190613d90565b60f81b818381518110611e72577f4e487b7100000000000000000000000000000000000000000000000000000000600052603260045260246000fd5b60200101907effffffffffffffffffffffffffffffffffffffffffffffffffffffffffffff1916908160001a905350600a85611eae9190613de6565b9450611e06565b8093505050505b919050565b600080611ecd83612612565b9050611f2b81848060600190611ee39190613c95565b8080601f016020809104026020016040519081016040528093929190818152602001838380828437600081840152601f19601f8201169050808301925050505050505061267c565b915050919050565b600073ffffffffffffffffffffffffffffffffffffffff168273ffffffffffffffffffffffffffffffffffffffff161415611fa3576040517f08c379a0000000000000000000000000000000000000000000000000000000008152600401611f9a90613b51565b60405180910390fd5b611fac81611462565b15611fec576040517f08c379a0000000000000000000000000000000000000000000000000000000008152600401611fe3906139f1565b60405180910390fd5b611ff860008383612177565b6001600360008473ffffffffffffffffffffffffffffffffffffffff1673ffffffffffffffffffffffffffffffffffffffff16815260200190815260200160002060008282546120489190613d90565b92505081905550816002600083815260200190815260200160002060006101000a81548173ffffffffffffffffffffffffffffffffffffffff021916908373ffffffffffffffffffffffffffffffffffffffff160217905550808273ffffffffffffffffffffffffffffffffffffffff16600073ffffffffffffffffffffffffffffffffffffffff167fddf252ad1be2c89b69c2b068fc378daa952ba7f163c4a11628f55a4df523b3ef60405160405180910390a46121096000838361217c565b5050565b60007f01ffc9a7000000000000000000000000000000000000000000000000000000007bffffffffffffffffffffffffffffffffffffffffffffffffffffffff1916827bffffffffffffffffffffffffffffffffffffffffffffffffffffffff1916149050919050565b505050565b505050565b6060600060028360026121949190613e17565b61219e9190613d90565b67ffffffffffffffff8111156121dd577f4e487b7100000000000000000000000000000000000000000000000000000000600052604160045260246000fd5b6040519080825280601f01601f19166020018201604052801561220f5781602001600182028036833780820191505090505b5090507f30000000000000000000000000000000000000000000000000000000000000008160008151811061226d577f4e487b7100000000000000000000000000000000000000000000000000000000600052603260045260246000fd5b60200101907effffffffffffffffffffffffffffffffffffffffffffffffffffffffffffff1916908160001a9053507f7800000000000000000000000000000000000000000000000000000000000000816001815181106122f7577f4e487b7100000000000000000000000000000000000000000000000000000000600052603260045260246000fd5b60200101907effffffffffffffffffffffffffffffffffffffffffffffffffffffffffffff1916908160001a905350600060018460026123379190613e17565b6123419190613d90565b90505b600181111561242d577f3031323334353637383961626364656600000000000000000000000000000000600f8616601081106123a9577f4e487b7100000000000000000000000000000000000000000000000000000000600052603260045260246000fd5b1a60f81b8282815181106123e6577f4e487b7100000000000000000000000000000000000000000000000000000000600052603260045260246000fd5b60200101907effffffffffffffffffffffffffffffffffffffffffffffffffffffffffffff1916908160001a905350600485901c94508061242690613f72565b9050612344565b5060008414612471576040517f08c379a000000000000000000000000000000000000000000000000000000000815260040161246890613931565b60405180910390fd5b8091505092915050565b600061249c8473ffffffffffffffffffffffffffffffffffffffff166126a3565b15612605578373ffffffffffffffffffffffffffffffffffffffff1663150b7a026124c56114ce565b8786866040518563ffffffff1660e01b81526004016124e79493929190613790565b602060405180830381600087803b15801561250157600080fd5b505af192505050801561253257506040513d601f19601f8201168201806040525081019061252f91906130dd565b60015b6125b5573d8060008114612562576040519150601f19603f3d011682016040523d82523d6000602084013e612567565b606091505b506000815114156125ad576040517f08c379a00000000000000000000000000000000000000000000000000000000081526004016125a4906139b1565b60405180910390fd5b805181602001fd5b63150b7a0260e01b7bffffffffffffffffffffffffffffffffffffffffffffffffffffffff1916817bffffffffffffffffffffffffffffffffffffffffffffffffffffffff19161491505061260a565b600190505b949350505050565b60006126757fee342a7b8ed82b92403ac329515e1b813e9eb11467560004e86d1f205b751a3383600001358460200135856040013560405160200161265a9493929190613865565b604051602081830303815290604052805190602001206126c6565b9050919050565b600080600061268b85856126e0565b9150915061269881612763565b819250505092915050565b6000808273ffffffffffffffffffffffffffffffffffffffff163b119050919050565b60006126d96126d3612ab4565b83612bce565b9050919050565b6000806041835114156127225760008060006020860151925060408601519150606086015160001a905061271687828585612c01565b9450945050505061275c565b604083511415612753576000806020850151915060408501519050612748868383612d0e565b93509350505061275c565b60006002915091505b9250929050565b6000600481111561279d577f4e487b7100000000000000000000000000000000000000000000000000000000600052602160045260246000fd5b8160048111156127d6577f4e487b7100000000000000000000000000000000000000000000000000000000600052602160045260246000fd5b14156127e157612ab1565b6001600481111561281b577f4e487b7100000000000000000000000000000000000000000000000000000000600052602160045260246000fd5b816004811115612854577f4e487b7100000000000000000000000000000000000000000000000000000000600052602160045260246000fd5b1415612895576040517f08c379a000000000000000000000000000000000000000000000000000000000815260040161288c90613911565b60405180910390fd5b600260048111156128cf577f4e487b7100000000000000000000000000000000000000000000000000000000600052602160045260246000fd5b816004811115612908577f4e487b7100000000000000000000000000000000000000000000000000000000600052602160045260246000fd5b1415612949576040517f08c379a000000000000000000000000000000000000000000000000000000000815260040161294090613951565b60405180910390fd5b60036004811115612983577f4e487b7100000000000000000000000000000000000000000000000000000000600052602160045260246000fd5b8160048111156129bc577f4e487b7100000000000000000000000000000000000000000000000000000000600052602160045260246000fd5b14156129fd576040517f08c379a00000000000000000000000000000000000000000000000000000000081526004016129f490613a91565b60405180910390fd5b600480811115612a36577f4e487b7100000000000000000000000000000000000000000000000000000000600052602160045260246000fd5b816004811115612a6f577f4e487b7100000000000000000000000000000000000000000000000000000000600052602160045260246000fd5b1415612ab0576040517f08c379a0000000000000000000000000000000000000000000000000000000008152600401612aa790613b31565b60405180910390fd5b5b50565b60007f000000000000000000000000000000000000000000000000000000000000000073ffffffffffffffffffffffffffffffffffffffff163073ffffffffffffffffffffffffffffffffffffffff16148015612b3057507f000000000000000000000000000000000000000000000000000000000000000046145b15612b5d577f00000000000000000000000000000000000000000000000000000000000000009050612bcb565b612bc87f00000000000000000000000000000000000000000000000000000000000000007f00000000000000000000000000000000000000000000000000000000000000007f0000000000000000000000000000000000000000000000000000000000000000612d6d565b90505b90565b60008282604051602001612be39291906136ef565b60405160208183030381529060405280519060200120905092915050565b6000807f7fffffffffffffffffffffffffffffff5d576e7357a4501ddfe92f46681b20a08360001c1115612c3c576000600391509150612d05565b601b8560ff1614158015612c545750601c8560ff1614155b15612c66576000600491509150612d05565b600060018787878760405160008152602001604052604051612c8b94939291906138aa565b6020604051602081039080840390855afa158015612cad573d6000803e3d6000fd5b505050602060405103519050600073ffffffffffffffffffffffffffffffffffffffff168173ffffffffffffffffffffffffffffffffffffffff161415612cfc57600060019250925050612d05565b80600092509250505b94509492505050565b60008060007f7fffffffffffffffffffffffffffffffffffffffffffffffffffffffffffffff60001b841690506000601b60ff8660001c901c612d519190613d90565b9050612d5f87828885612c01565b935093505050935093915050565b60008383834630604051602001612d88959493929190613812565b6040516020818303038152906040528051906020012090509392505050565b6000612dba612db584613d11565b613cec565b905082815260208101848484011115612dd257600080fd5b612ddd848285613f30565b509392505050565b600081359050612df481614832565b92915050565b600081359050612e0981614849565b92915050565b600081359050612e1e81614860565b92915050565b600081359050612e3381614877565b92915050565b600081519050612e4881614877565b92915050565b600082601f830112612e5f57600080fd5b8135612e6f848260208601612da7565b91505092915050565b600060808284031215612e8a57600080fd5b81905092915050565b600081359050612ea28161488e565b92915050565b600060208284031215612eba57600080fd5b6000612ec884828501612de5565b91505092915050565b60008060408385031215612ee457600080fd5b6000612ef285828601612de5565b9250506020612f0385828601612de5565b9150509250929050565b600080600060608486031215612f2257600080fd5b6000612f3086828701612de5565b9350506020612f4186828701612de5565b9250506040612f5286828701612e93565b9150509250925092565b60008060008060808587031215612f7257600080fd5b6000612f8087828801612de5565b9450506020612f9187828801612de5565b9350506040612fa287828801612e93565b925050606085013567ffffffffffffffff811115612fbf57600080fd5b612fcb87828801612e4e565b91505092959194509250565b60008060408385031215612fea57600080fd5b6000612ff885828601612de5565b925050602061300985828601612dfa565b9150509250929050565b6000806040838503121561302657600080fd5b600061303485828601612de5565b925050602061304585828601612e93565b9150509250929050565b60006020828403121561306157600080fd5b600061306f84828501612e0f565b91505092915050565b6000806040838503121561308b57600080fd5b600061309985828601612e0f565b92505060206130aa85828601612de5565b9150509250929050565b6000602082840312156130c657600080fd5b60006130d484828501612e24565b91505092915050565b6000602082840312156130ef57600080fd5b60006130fd84828501612e39565b91505092915050565b60006020828403121561311857600080fd5b600082013567ffffffffffffffff81111561313257600080fd5b61313e84828501612e78565b91505092915050565b60006020828403121561315957600080fd5b600061316784828501612e93565b91505092915050565b6000806040838503121561318357600080fd5b600061319185828601612e93565b92505060206131a285828601612e0f565b9150509250929050565b6131b581613ea5565b82525050565b6131c481613eb7565b82525050565b6131d381613ec3565b82525050565b6131ea6131e582613ec3565b614048565b82525050565b60006131fb82613d42565b6132058185613d58565b9350613215818560208601613f3f565b61321e8161413f565b840191505092915050565b600061323482613d4d565b61323e8185613d74565b935061324e818560208601613f3f565b6132578161413f565b840191505092915050565b600061326d82613d4d565b6132778185613d85565b9350613287818560208601613f3f565b80840191505092915050565b60006132a0601883613d74565b91506132ab82614150565b602082019050919050565b60006132c3602083613d74565b91506132ce82614179565b602082019050919050565b60006132e6601f83613d74565b91506132f1826141a2565b602082019050919050565b6000613309600f83613d74565b9150613314826141cb565b602082019050919050565b600061332c601383613d74565b9150613337826141f4565b602082019050919050565b600061334f603283613d74565b915061335a8261421d565b604082019050919050565b6000613372602583613d74565b915061337d8261426c565b604082019050919050565b6000613395601c83613d74565b91506133a0826142bb565b602082019050919050565b60006133b8600283613d85565b91506133c3826142e4565b600282019050919050565b60006133db601383613d74565b91506133e68261430d565b602082019050919050565b60006133fe602483613d74565b915061340982614336565b604082019050919050565b6000613421601983613d74565b915061342c82614385565b602082019050919050565b6000613444601583613d74565b915061344f826143ae565b602082019050919050565b6000613467602283613d74565b9150613472826143d7565b604082019050919050565b600061348a602c83613d74565b915061349582614426565b604082019050919050565b60006134ad603883613d74565b91506134b882614475565b604082019050919050565b60006134d0602a83613d74565b91506134db826144c4565b604082019050919050565b60006134f3602983613d74565b91506134fe82614513565b604082019050919050565b6000613516602283613d74565b915061352182614562565b604082019050919050565b6000613539602083613d74565b9150613544826145b1565b602082019050919050565b600061355c602c83613d74565b9150613567826145da565b604082019050919050565b600061357f602f83613d74565b915061358a82614629565b604082019050919050565b60006135a2602183613d74565b91506135ad82614678565b604082019050919050565b60006135c5602283613d74565b91506135d0826146c7565b604082019050919050565b60006135e8600083613d69565b91506135f382614716565b600082019050919050565b600061360b603183613d74565b915061361682614719565b604082019050919050565b600061362e601783613d85565b915061363982614768565b601782019050919050565b6000613651601183613d74565b915061365c82614791565b602082019050919050565b6000613674601183613d85565b915061367f826147ba565b601182019050919050565b6000613697602f83613d74565b91506136a2826147e3565b604082019050919050565b6136b681613f19565b82525050565b6136c581613f23565b82525050565b60006136d78285613262565b91506136e38284613262565b91508190509392505050565b60006136fa826133ab565b915061370682856131d9565b60208201915061371682846131d9565b6020820191508190509392505050565b6000613731826135db565b9150819050919050565b600061374682613621565b91506137528285613262565b915061375d82613667565b91506137698284613262565b91508190509392505050565b600060208201905061378a60008301846131ac565b92915050565b60006080820190506137a560008301876131ac565b6137b260208301866131ac565b6137bf60408301856136ad565b81810360608301526137d181846131f0565b905095945050505050565b60006020820190506137f160008301846131bb565b92915050565b600060208201905061380c60008301846131ca565b92915050565b600060a08201905061382760008301886131ca565b61383460208301876131ca565b61384160408301866131ca565b61384e60608301856136ad565b61385b60808301846131ac565b9695505050505050565b600060808201905061387a60008301876131ca565b61388760208301866136ad565b61389460408301856136ad565b6138a160608301846131ca565b95945050505050565b60006080820190506138bf60008301876131ca565b6138cc60208301866136bc565b6138d960408301856131ca565b6138e660608301846131ca565b95945050505050565b600060208201905081810360008301526139098184613229565b905092915050565b6000602082019050818103600083015261392a81613293565b9050919050565b6000602082019050818103600083015261394a816132b6565b9050919050565b6000602082019050818103600083015261396a816132d9565b9050919050565b6000602082019050818103600083015261398a816132fc565b9050919050565b600060208201905081810360008301526139aa8161331f565b9050919050565b600060208201905081810360008301526139ca81613342565b9050919050565b600060208201905081810360008301526139ea81613365565b9050919050565b60006020820190508181036000830152613a0a81613388565b9050919050565b60006020820190508181036000830152613a2a816133ce565b9050919050565b60006020820190508181036000830152613a4a816133f1565b9050919050565b60006020820190508181036000830152613a6a81613414565b9050919050565b60006020820190508181036000830152613a8a81613437565b9050919050565b60006020820190508181036000830152613aaa8161345a565b9050919050565b60006020820190508181036000830152613aca8161347d565b9050919050565b60006020820190508181036000830152613aea816134a0565b9050919050565b60006020820190508181036000830152613b0a816134c3565b9050919050565b60006020820190508181036000830152613b2a816134e6565b9050919050565b60006020820190508181036000830152613b4a81613509565b9050919050565b60006020820190508181036000830152613b6a8161352c565b9050919050565b60006020820190508181036000830152613b8a8161354f565b9050919050565b60006020820190508181036000830152613baa81613572565b9050919050565b60006020820190508181036000830152613bca81613595565b9050919050565b60006020820190508181036000830152613bea816135b8565b9050919050565b60006020820190508181036000830152613c0a816135fe565b9050919050565b60006020820190508181036000830152613c2a81613644565b9050919050565b60006020820190508181036000830152613c4a8161368a565b9050919050565b6000602082019050613c6660008301846136ad565b92915050565b6000604082019050613c8160008301856136ad565b613c8e60208301846131ca565b9392505050565b60008083356001602003843603038112613cae57600080fd5b80840192508235915067ffffffffffffffff821115613ccc57600080fd5b602083019250600182023603831315613ce457600080fd5b509250929050565b6000613cf6613d07565b9050613d028282613fce565b919050565b6000604051905090565b600067ffffffffffffffff821115613d2c57613d2b614110565b5b613d358261413f565b9050602081019050919050565b600081519050919050565b600081519050919050565b600082825260208201905092915050565b600081905092915050565b600082825260208201905092915050565b600081905092915050565b6000613d9b82613f19565b9150613da683613f19565b9250827fffffffffffffffffffffffffffffffffffffffffffffffffffffffffffffffff03821115613ddb57613dda614083565b5b828201905092915050565b6000613df182613f19565b9150613dfc83613f19565b925082613e0c57613e0b6140b2565b5b828204905092915050565b6000613e2282613f19565b9150613e2d83613f19565b9250817fffffffffffffffffffffffffffffffffffffffffffffffffffffffffffffffff0483118215151615613e6657613e65614083565b5b828202905092915050565b6000613e7c82613f19565b9150613e8783613f19565b925082821015613e9a57613e99614083565b5b828203905092915050565b6000613eb082613ef9565b9050919050565b60008115159050919050565b6000819050919050565b60007fffffffff0000000000000000000000000000000000000000000000000000000082169050919050565b600073ffffffffffffffffffffffffffffffffffffffff82169050919050565b6000819050919050565b600060ff82169050919050565b82818337600083830152505050565b60005b83811015613f5d578082015181840152602081019050613f42565b83811115613f6c576000848401525b50505050565b6000613f7d82613f19565b91506000821415613f9157613f90614083565b5b600182039050919050565b60006002820490506001821680613fb457607f821691505b60208210811415613fc857613fc76140e1565b5b50919050565b613fd78261413f565b810181811067ffffffffffffffff82111715613ff657613ff5614110565b5b80604052505050565b600061400a82613f19565b91507fffffffffffffffffffffffffffffffffffffffffffffffffffffffffffffffff82141561403d5761403c614083565b5b600182019050919050565b6000819050919050565b600061405d82613f19565b915061406883613f19565b925082614078576140776140b2565b5b828206905092915050565b7f4e487b7100000000000000000000000000000000000000000000000000000000600052601160045260246000fd5b7f4e487b7100000000000000000000000000000000000000000000000000000000600052601260045260246000fd5b7f4e487b7100000000000000000000000000000000000000000000000000000000600052602260045260246000fd5b7f4e487b7100000000000000000000000000000000000000000000000000000000600052604160045260246000fd5b6000601f19601f8301169050919050565b7f45434453413a20696e76616c6964207369676e61747572650000000000000000600082015250565b7f537472696e67733a20686578206c656e67746820696e73756666696369656e74600082015250565b7f45434453413a20696e76616c6964207369676e6174757265206c656e67746800600082015250565b7f57726f6e67207369676e61747572650000000000000000000000000000000000600082015250565b7f4e6f7468696e6720746f20776974686472617700000000000000000000000000600082015250565b7f4552433732313a207472616e7366657220746f206e6f6e20455243373231526560008201527f63656976657220696d706c656d656e7465720000000000000000000000000000602082015250565b7f4552433732313a207472616e736665722066726f6d20696e636f72726563742060008201527f6f776e6572000000000000000000000000000000000000000000000000000000602082015250565b7f4552433732313a20746f6b656e20616c7265616479206d696e74656400000000600082015250565b7f1901000000000000000000000000000000000000000000000000000000000000600082015250565b7f4368616e6765206e6f7420617070726f76656400000000000000000000000000600082015250565b7f4552433732313a207472616e7366657220746f20746865207a65726f2061646460008201527f7265737300000000000000000000000000000000000000000000000000000000602082015250565b7f4552433732313a20617070726f766520746f2063616c6c657200000000000000600082015250565b7f4e6f7420616e206f776e6572206f6620746f6b656e0000000000000000000000600082015250565b7f45434453413a20696e76616c6964207369676e6174757265202773272076616c60008201527f7565000000000000000000000000000000000000000000000000000000000000602082015250565b7f4552433732313a206f70657261746f7220717565727920666f72206e6f6e657860008201527f697374656e7420746f6b656e0000000000000000000000000000000000000000602082015250565b7f4552433732313a20617070726f76652063616c6c6572206973206e6f74206f7760008201527f6e6572206e6f7220617070726f76656420666f7220616c6c0000000000000000602082015250565b7f4552433732313a2062616c616e636520717565727920666f7220746865207a6560008201527f726f206164647265737300000000000000000000000000000000000000000000602082015250565b7f4552433732313a206f776e657220717565727920666f72206e6f6e657869737460008201527f656e7420746f6b656e0000000000000000000000000000000000000000000000602082015250565b7f45434453413a20696e76616c6964207369676e6174757265202776272076616c60008201527f7565000000000000000000000000000000000000000000000000000000000000602082015250565b7f4552433732313a206d696e7420746f20746865207a65726f2061646472657373600082015250565b7f4552433732313a20617070726f76656420717565727920666f72206e6f6e657860008201527f697374656e7420746f6b656e0000000000000000000000000000000000000000602082015250565b7f4552433732314d657461646174613a2055524920717565727920666f72206e6f60008201527f6e6578697374656e7420746f6b656e0000000000000000000000000000000000602082015250565b7f4552433732313a20617070726f76616c20746f2063757272656e74206f776e6560008201527f7200000000000000000000000000000000000000000000000000000000000000602082015250565b7f4e6f7420656e6f756768742065746865722073656e7420746f2070757263686160008201527f7365000000000000000000000000000000000000000000000000000000000000602082015250565b50565b7f4552433732313a207472616e736665722063616c6c6572206973206e6f74206f60008201527f776e6572206e6f7220617070726f766564000000000000000000000000000000602082015250565b7f416363657373436f6e74726f6c3a206163636f756e7420000000000000000000600082015250565b7f5769746864726177616c206661696c6564000000000000000000000000000000600082015250565b7f206973206d697373696e6720726f6c6520000000000000000000000000000000600082015250565b7f416363657373436f6e74726f6c3a2063616e206f6e6c792072656e6f756e636560008201527f20726f6c657320666f722073656c660000000000000000000000000000000000602082015250565b61483b81613ea5565b811461484657600080fd5b50565b61485281613eb7565b811461485d57600080fd5b50565b61486981613ec3565b811461487457600080fd5b50565b61488081613ecd565b811461488b57600080fd5b50565b61489781613f19565b81146148a257600080fd5b5056fea2646970667358221220229c001951c32f8e27b702e14e45b3cd18ffcae0d909a1f30d18676945c07ee464736f6c63430008040033",
  "linkReferences": {},
  "deployedLinkReferences": {}
}